:100000000C9434000C943E000C943E000C943E0082
:100010000C943E000C943E000C943E000C943E0068
:100020000C943E000C943E000C943E000C943E0058
:100030000C943E000C943E000C943E000C943E0048
:100040000C943E000C943E000C943E000C943E0038
:100050000C943E000C9478000C943E000C943E00EE
:100060000C943E000C943E0011241FBECFEFD8E04C
:10007000DEBFCDBF0E9440000C94E2000C94000053
:10008000CF93DF93CDB7DEB784E290E026E0FC01AA
:10009000208385E290E02FEFFC0120838CE790E045
:1000A00020E4FC0120838AE790E02FECFC01208310
:1000B00080E890E022EFFC01208381E890E02DE0D1
:1000C000FC01208382E890E0FC01108288E890E047
:1000D0002CE930E0FC013183208378948AE790E0BA
:1000E0002AE730E0F90120812064FC012083FFCF62
:1000F0001F920F9200905F000F9211242F933F9355
:100100006F937F938F939F93AF93BF93EF93FF93DF
:10011000CF93DF9300D0CDB7DEB788E790E0FC0146
:10012000808191819A83898389819A81880F991F1F
:100130009C01220F331F220F331F820F931F9C013C
:10014000AFE3B8EF0E94D30096958795929582957C
:100150008F7089279F7089279A8389838AE890E026
:1001600029813A81FC01318320838AE790E02AE7E4
:1001700030E0F90120812064FC01208300000F9011
:100180000F90DF91CF91FF91EF91BF91AF919F9130
:100190008F917F916F913F912F910F9000925F000F
:1001A0000F901F901895A29FB001B39FC001A39F0D
:1001B000700D811D1124911DB29F700D811D1124A0
:0801C000911D0895F894FFCF92
:00000001FF
