S0110000546573744C6F6769632E7372656385
S11300000C9434000C9446000C9446000C94460066
S11300100C9446000C9446000C9446000C94460044
S11300200C9446000C9446000C9446000C94460034
S11300300C9446000C9446000C9446000C94460024
S11300400C9446000C9446000C9446000C94460014
S11300500C9446000C9446000C9446000C94460004
S11300600C9446000C94460011241FBECFEFD8E038
S1130070DEBFCDBF21E0A0E0B1E001C01D92AC30F5
S1130080B207E1F70E9448000C9425010C9400008B
S1130090CF93DF931F92CDB7DEB782EB92E09093BC
S11300A005018093040180E29EE490930301809310
S11300B00201809102019091030128E631E0B90127
S11300C00E94BC00CB0190930B0180930A01209104
S11300D00A0130910B014AE5429FC001439F900DF4
S11300E01124909307018093060180910601909159
S11300F0070127E030E0B9010E94BC00CB019093D6
S11301000901809308012091040130910501809137
S1130110080190910901820F931F092E000CAA0B6C
S1130120BB0BBA2FA92F982F882720910801309153
S11301300901220F331F032E000C440B550BBC0185
S1130140CD010E94D000DA01C901898380910001A8
S113015090910101892B39F0809100019091010166
S1130160019709F0A0CF88E890E02981222F30E0A0
S1130170FC013183208397CF97FB072E16F400945C
S113018007D077FD09D00E94EF0007FC05D03EF4AC
S1130190909581959F4F0895709561957F4F08952F
S11301A0052E97FB1EF400940E94E70057FD07D02C
S11301B00E94030107FC03D04EF40C94E700509511
S11301C04095309521953F4F4F4F5F4F089590953F
S11301D08095709561957F4F8F4F9F4F0895AA1B0F
S11301E0BB1B51E107C0AA1FBB1FA617B70710F01E
S11301F0A61BB70B881F991F5A95A9F78095909550
S1130200BC01CD010895A1E21A2EAA1BBB1BFD015E
S11302100DC0AA1FBB1FEE1FFF1FA217B307E407E1
S1130220F50720F0A21BB30BE40BF50B661F771F39
S1130230881F991F1A9469F7609570958095909519
S11102409B01AC01BD01CF010895F894FFCFDE
S9030000FC
