:100000000C9434000C9446000C9446000C9446006A
:100010000C9413020C9446000C9446000C94460079
:100020000C9446000C9446000C9446000C94460038
:100030000C9446000C9446000C94AB010C944600C2
:100040000C9446000C9446000C9446000C94460018
:100050000C9446000C9446000C9446000C94460008
:100060000C9446000C94460011241FBECFEFD8E03C
:10007000DEBFCDBF21E0A0E0B1E001C01D92AD31F7
:10008000B207E1F70E94E0000C948B040C9400008E
:10009000CF93DF931F92CDB7DEB710920501109278
:1000A00001011092020110921801109200011092A9
:1000B0000E01109209011092060110921101109286
:1000C00017011092160110920B0110920A01109262
:1000D000100110920F0110920D0110920C0110925C
:1000E0001A0110921901109204011092030180E28A
:1000F0009EE4909308018093070187E290E0FC0161
:10010000108288E290E0FC01108288E690E022E014
:10011000FC0120838CE690E02FE3FC01208384E245
:1001200090E0FC018081898389818E60898384E2EB
:1001300090E02981FC01208384E490E022E0FC012E
:10014000208385E490E022E0FC0120838EE690E0AD
:1001500022E0FC01208387E490E024E1FC0120837D
:1001600080E890E021EAFC01208381E890E029E02A
:10017000FC01208382E890E0FC01108288E890E096
:100180002FE730E0FC01318320838AE890E02FE7FD
:1001900030E0FC013183208380EB90E023E8FC0118
:1001A000208381EB90E021E0FC01208383EB90E051
:1001B0002FE7FC01208300000F90DF91CF9108957D
:1001C000CF93DF9300D01F92CDB7DEB70E944800D7
:1001D000809107019091080128E631E0B9010E9461
:1001E0002204CB0190931C0180931B0120911B01E1
:1001F00030911C014EE1429FC001439F900D11249C
:100200009093130180931201809112019091130138
:100210002AE030E0B9010E942204CB01909315013D
:1002200080931401789480910501882321F08091B6
:100230000501813059F520910C0130910D0180911B
:10024000140190911501820F931F092E000CAA0B27
:10025000BB0BBA2FA92F982F88272091140130911A
:100260001501220F331F032E000C440B550BBC014C
:10027000CD010E943604DA01C901898388E890E043
:100280002981222F30E0FC013183208380910101FC
:10029000882321F080910101813059F520911901C5
:1002A00030911A018091140190911501820F931FD2
:1002B000092E000CAA0BBB0BBA2FA92F982F882749
:1002C0002091140130911501220F331F032E000CD1
:1002D000440B550BBC01CD010E943604DA01C90163
:1002E0008A838AE890E02A81222F30E0FC01318362
:1002F000208380910201882329F0809102018130BE
:1003000009F091CF209103013091040180911401F3
:1003100090911501820F931F092E000CAA0BBB0BA5
:10032000BA2FA92F982F88272091140130911501F9
:10033000220F331F032E000C440B550BBC01CD01C3
:100340000E943604DA01C9018B8383EB90E02B8194
:10035000FC01208368CF1F920F9200905F000F92E4
:1003600011248F939F93CF93DF93CDB7DEB7809106
:100370000501823051F48091160190911701019688
:1003800090931701809316010DC080910501833071
:1003900049F48091160190911701019790931701EC
:1003A0008093160180910101823051F480910A01FD
:1003B00090910B01019690930B0180930A010DC05F
:1003C00080910101833049F480910A0190910B01E1
:1003D000019790930B0180930A0180910201823072
:1003E00051F480910F0190911001019690931001AA
:1003F00080930F010DC080910201833049F48091F8
:100400000F019091100101979093100180930F01BB
:100410000000DF91CF919F918F910F9000925F002C
:100420000F901F9018951F920F9200905F000F92EF
:1004300011242F933F938F939F93EF93FF93CF9329
:10044000DF931F92CDB7DEB786E290E0FC0180819A
:100450008983898183708093090189818C7080935D
:100460000601898180738093110180910501882F95
:1004700090E081309105B9F0823091051CF4892B10
:1004800029F08BC004970CF088C036C08091090118
:10049000882309F084C081E08093050180910901DF
:1004A000809318017CC090910901809118019817E0
:1004B00009F477C0109217011092160110920D01E5
:1004C00010920C0180910901882F90E081309105F4
:1004D00019F0029729F008C083E08093050107C056
:1004E00082E08093050103C0109205010000809115
:1004F00009018093180155C090910901809118015C
:10050000981709F450C010920501809109018330B9
:10051000B9F5209116013091170180911401909145
:100520001501281739074CF080911401909115019D
:100530000197909317018093160180911401909177
:10054000150122273327281B390B80911601909122
:100550001701821793075CF48091140190911501A3
:10056000919581959109909317018093160180913F
:1005700016019091170190930D0180930C0108C012
:10058000109217011092160110920D0110920C0199
:10059000809109018093180106C0000005C0000089
:1005A00003C0000001C0000080910201882F90E08C
:1005B00081309105B9F0823091051CF4892B29F026
:1005C0008BC004970CF088C036C08091110188233D
:1005D00009F084C081E08093020180911101809331
:1005E0000E017CC09091110180910E01981709F4C1
:1005F00077C01092100110920F0110920401109216
:10060000030180911101882F90E08031910519F04C
:10061000809729F008C083E08093020107C082E040
:100620008093020103C01092020100008091110129
:1006300080930E0155C09091110180910E01981781
:1006400009F450C010920201809111018033B9F574
:1006500020910F01309110018091140190911501AA
:10066000281739074CF080911401909115010197DA
:100670009093100180930F018091140190911501C6
:1006800022273327281B390B80910F0190911001ED
:10069000821793075CF48091140190911501919554
:1006A000819591099093100180930F0180910F0122
:1006B00090911001909304018093030108C010925F
:1006C000100110920F011092040110920301809109
:1006D000110180930E0106C0000005C0000003C098
:1006E000000001C0000080910101882F90E081305E
:1006F0009105B9F0823091051CF4892B29F08BC04B
:1007000004970CF088C036C080910601882309F058
:1007100084C081E0809301018091060180930001F3
:100720007CC09091060180910001981709F477C070
:1007300010920B0110920A0110921A0110921901E5
:1007400080910601882F90E08430910519F0089778
:1007500029F008C083E08093010107C082E0809304
:10076000010103C0109201010000809106018093F5
:10077000000155C09091060180910001981709F47D
:1007800050C010920101809106018C30B9F5209182
:100790000A0130910B0180911401909115012817E5
:1007A00039074CF0809114019091150101979093B5
:1007B0000B0180930A018091140190911501222769
:1007C0003327281B390B80910A0190910B01821766
:1007D00093075CF480911401909115019195819596
:1007E000910990930B0180930A0180910A019091E5
:1007F0000B0190931A018093190108C010920B010C
:1008000010920A0110921A011092190180910601AA
:100810008093000106C0000005C0000003C0000076
:1008200001C0000000000F90DF91CF91FF91EF9188
:100830009F918F913F912F910F9000925F000F90A9
:100840001F90189597FB072E16F4009407D077FD9C
:1008500009D00E94550407FC05D03EF4909581957F
:100860009F4F0895709561957F4F0895052E97FBD2
:100870001EF400940E944D0457FD07D00E946904A5
:1008800007FC03D04EF40C944D04509540953095E0
:1008900021953F4F4F4F5F4F0895909580957095EC
:1008A00061957F4F8F4F9F4F0895AA1BBB1B51E14E
:1008B00007C0AA1FBB1FA617B70710F0A61BB70BD0
:1008C000881F991F5A95A9F780959095BC01CD0175
:1008D0000895A1E21A2EAA1BBB1BFD010DC0AA1F81
:1008E000BB1FEE1FFF1FA217B307E407F50720F099
:1008F000A21BB30BE40BF50B661F771F881F991F14
:100900001A9469F760957095809590959B01AC015C
:0A091000BD01CF010895F894FFCF58
:00000001FF
